:020000040800F2
:10000000104000209D010008A5010008A70100087C
:10001000A9010008AB010008AD01000800000000C4
:10002000000000000000000000000000AF01000818
:10003000B101000800000000B3010008B50100088C
:10004000B7010008B7010008B7010008B7010008B0
:10005000B7010008B7010008B7010008B7010008A0
:10006000B7010008B7010008B7010008B701000890
:10007000B7010008B7010008B7010008B701000880
:10008000B7010008B7010008B7010008B701000870
:10009000B7010008B7010008B7010008B701000860
:1000A000B7010008B7010008B7010008B701000850
:1000B000B7010008B7010008B7010008B701000840
:1000C000B7010008B7010008B7010008B701000830
:1000D000B7010008B7010008B7010008B701000820
:1000E000B7010008B7010008B7010008B701000810
:1000F000B7010008B7010008B7010008B701000800
:10010000B7010008B7010008B7010008B7010008EF
:10011000B7010008B7010008B7010008B7010008DF
:10012000B7010008B7010008B7010008B7010008CF
:10013000B7010008B7010008B7010008B7010008BF
:10014000B7010008B7010008B7010008B7010008AF
:10015000B7010008B7010008B7010008B70100089F
:10016000B7010008B7010008B7010008B70100088F
:10017000B7010008B7010008B7010008B70100087F
:10018000B7010008B7010008DFF80CD000F018F83C
:10019000004800476D0700081040002006488047CF
:1001A00006480047FEE7FEE7FEE7FEE7FEE7FEE75C
:1001B000FEE7FEE7FEE7FEE7E1040008890100082C
:1001C000064C074D06E0E06840F0010394E80700A4
:1001D00098471034AC42F6D3FFF7DAFF90070008D7
:1001E000B0070008F0B50A4600210023002400BF34
:1001F0003DE0012505FA01F3156805EA03049C4278
:1002000034D105684F000326BE40B543056015791B
:100210004E00B5400668354305601579012D02D0C2
:100220001579022D16D185684F000326BE40B543CF
:10023000856055794E00B5408668354385604568D0
:1002400001268E40B5434560456896798E40B6B22A
:1002500035434560C5684F000326BE40B543C560C1
:10026000D5794E00B540C6683543C560491C102994
:10027000BFD3F0BDF0B5002300244D07ED0E02FA08
:1002800005F3CE1000F1200555F826504E07F70E65
:100290000F26BE40B543CF1000F1200646F8275088
:1002A000CE1000F1200555F8265045EA0304CE1083
:1002B00000F1200545F82640F0BD4FF6FF710160C2
:1002C0000021017141718171C171704729B1064AE4
:1002D00012680243044B1A6004E0034A1268824326
:1002E000014B1A60704700003038024029B1064ABD
:1002F00012680243044B1A6004E0034A1268824306
:10030000014B1A607047000044380240F0B50021EC
:1003100000220024022500260223324F3F6807F006
:100320000C0121B1042905D0082937D105E02E4F51
:10033000076036E02D4F076033E02A4F3F1F3F68CC
:10034000C7F38056274F3F1F3F6807F03F036EB14A
:10035000264FB7FBF3F7DFF88CC0ACF1040CDCF8E8
:1003600000C0CCF3881C07FB0CF40CE01E4FB7FB5D
:10037000F3F7DFF870C0ACF1040CDCF800C0CCF38C
:10038000881C07FB0CF4174F3F1F3F68C7F301475A
:100390007F1C7D00B4FBF5F7076002E0124F076099
:1003A00000BF00BF0F4F3F6807F0F0010909104F71
:1003B0007A5C0768D74047600A4F3F6807F4E0510E
:1003C000890A0B4F7A5C4768D7408760054F3F68C2
:1003D00007F46041490B064F7A5C4768D740C76015
:1003E000F0BD0000083802400024F40000127A003A
:1003F000000000200CB500200190009034480068F7
:1004000040F480303249086000BF3148006800F491
:10041000003000900198401C0190009818B9019894
:10042000B0F5A04FF1D12A48006800F4003010B1B7
:100430000120009001E0002000900098012846D1A2
:1004400023484030006840F0805021494031086026
:100450002048006840F440401E4908601C480830AD
:1004600000681B49083108600846006840F40040F5
:1004700008600846006840F4A05008601648091F4C
:100480000860081F006840F08070091F086000BF06
:100490000F48006800F000700028F9D040F20570A5
:1004A0000E4908600A480830006820F00300084937
:1004B000083108600846006840F00200086000BF8C
:1004C00003480830006800F00C000828F8D10CBD83
:1004D000003802400070004008544007003C0240D1
:1004E00010B51548006840F47000134908601348BF
:1004F000006840F001001149086000200F490831F0
:1005000008600E4800680E4908400C4908600D4814
:10051000091D0860081F006820F48020091F08607A
:10052000002006490C310860FFF764FF4FF00060BF
:1005300001498039086010BD88ED00E000380240B4
:10054000FFFFF6FE1030002421B1828942F40052F0
:10055000828104E082894DF6FF731A4082817047E0
:1005600002460020B1F5007F00D100BF13880B4088
:100570000BB1012000E00020704700002DE9FF478B
:1005800005460E460024A14600BFA046B08900B132
:1005900000BF2C8A24F44054F08804432C82AC8998
:1005A00041F20C608443B088318908437189084363
:1005B0000443AC81AC8A24F44074B0890443AC8217
:1005C0006846FFF7A3FE2048854202D01F488542B7
:1005D00002D1DDF80C9001E0DDF80890A88900F464
:1005E000004040B109EBC90000EB09103168490037
:1005F000B0FBF1F707E009EBC90000EB0910316827
:100600008900B0FBF1F76420B7FBF0F0040120098A
:10061000642101FB1078A88900F4004040B1322029
:1006200000EBC800B0FBF1F000F00700044308E065
:10063000322000EB08106421B0FBF1F000F00F0055
:1006400004432C81BDE8FF870010014000140140E5
:10065000C1F30802828070474FF4165101600021F7
:100660008180C18001810C214181002181817047FD
:1006700002E008C8121F08C1002AFAD1704770476B
:10068000002001E001C1121F002AFBD170470000C9
:1006900000B587B001210846FFF718FE01211020A0
:1006A000FFF724FE072209211C48FFF7E3FD07227C
:1006B0000A211A48FFF7DEFD05A8FFF7FEFD4FF4FB
:1006C000C060059002208DF818008DF819000020F8
:1006D0008DF81A0001208DF81B0005A90F48FFF7BF
:1006E00081FD01A8FFF7B8FF4FF4E1300190002031
:1006F000ADF80800ADF80A00ADF80C00ADF8100038
:100700000C20ADF80E0001A90548FFF737FF0121C5
:100710000348FFF719FF07B000BD000000000240CA
:100720000010014010B5044600BF80210448FFF7C7
:1007300017FF0028F9D021460148FFF789FF10BDB7
:100740000010014010B5044603E02078FFF7EAFFEF
:10075000641C20780028F8D100BF40210248FFF730
:10076000FFFE0028F9D010BD00100140FFF790FFF8
:1007700002A0FFF7E7FF00BFFEE70000426F6F74C3
:100780006C6F616465722073746172740D0A00008D
:10079000B0070008000000201000000070060008EC
:1007A000C00700081000002000400000800600087C
:1007B0000000000001020304010203040607080907
:040000050800018965
:00000001FF
